:020000021000EC
:10F0000000800020855F0300AD5F0300AF5F030059
:10F01000B15F0300B35F0300B55F030000000000B1
:10F02000000000000000000000000000B75F0300C7
:10F03000B95F030000000000BB5F0300BD5F030079
:10F04000BF5F0300BF5F0300ED650300BF5F030008
:10F05000BF5F0300BF5F030051730300BF5F030086
:10F06000BF5F0300BF5F0300BF5F0300BF5F03001C
:10F07000BF5F0300BF5F0300BF5F0300BF5F03000C
:10F08000BF5F0300ED470300BF5F0300BF5F0300E6
:10F0900015480300BF5F0300E1570300BF5F030093
:10F0A000BF5F0300BF5F0300BF5F0300BF5F0300DC
:10F0B000BF5F0300BF5F030000000000000000000E
:10F0C000BF5F0300BF5F0300BF5F0300BF5F0300BC
:10F0D000BF5F0300BF5F0300BF5F030000000000CD
:10F0E0000000000000000000000000000000000020
:10F0F0000000000000000000000000000000000010
:10F1000000000000000000000000000000000000FF
:10F1100000000000000000000000000000000000EF
:10F4000010B5054C237833B9044B13B10448AFF35E
:10F4100000800123237010BDF019002000000000BF
:10F42000BC170400084B10B51BB108490848AFF3DE
:10F4300000800848036803B910BD074B002BFBD0C0
:10F44000BDE81040184700BF00000000F41900207C
:10F45000BC170400EC19002000000000154B002B25
:10F4600008BF134B9D46A3F5803A00218B460F46FB
:10F470001348144A121A00F065F80F4B002B00D005
:10F4800098470E4B002B00D0984700200021040025
:10F490000D000D48002802D00C48AFF3008000F0AA
:10F4A0002BF82000290000F0A1FF00F011F800BFA8
:10F4B00000000800008000200000000000000000A4
:10F4C000F0190020142800200000000000000000B7
:10F4D00008B5074B044613B10021AFF30080054B7C
:10F4E0001868836A03B19847204600F033F800BFDC
:10F4F00000000000F0E0030070B50E4B0E4CE41A63
:10F50000A41000251E46A54204D056F82530984781
:10F510000135F8E71EF0DEFD084C094BE41AA41093
:10F5200000251E46A54204D056F8253098470135DF
:10F53000F8E770BDE4190020E4190020E819002064
:10F54000E419002002440346934202D003F8011B51
:10F55000FAE77047FEE700BF042804D90538C00861
:10F56000023080B270470120704700BFF0B50E4DE9
:10F570002F680144C600BC5BA646C4F30E042343B7
:10F5800027F831302B6803EBC10358802B689C5B54
:10F59000C4F30E0403EBC40389B259802B680A43F9
:10F5A00023F83020F0BD00BF0C1A002010B40B4B24
:10F5B0001A6802EBC003D98802EBC1019C888C80D9
:10F5C000998802EBC101DC88CC801B88C3F30E0351
:10F5D00022F830305DF8044B704700BF0C1A002051
:10F5E00038B50F4B1B68C5005A5B33F93230002B1E
:10F5F00015DA04461046FFF7D9FF09490B685A5B34
:10F6000033F83220C2F30E0203EBC2035C800B68B6
:10F610005A5B33F83220C2F30E0223F8342038BD8F
:10F620000C1A002030B40A4A1468C00023185D8800
:10F630001B88194324F83510136819180C8803EB3C
:10F64000C4034988598013681844408830BC704707
:10F650000C1A002040B338B5144D2B68C41AC4F3FB
:10F66000CF042046FFF7BCFF2B6803EBC402518890
:10F6700033F93110002905DA4FF400412046FFF735
:10F68000D1FF38BD998803EBC101CC809988918066
:10F6900000219171D1719C8012886FEA42426FEA19
:10F6A000524223F8342038BD704700BF0C1A0020A6
:10F6B00070B5164C16482060164D4FF480532B80C1
:10F6C0004FF400420021FFF73DFF2988013989B23C
:10F6D000226800230125157053702268157153713B
:10F6E0006FEA41406FEA5040108113735373937275
:10F6F000D3729373D373C800161802F83130737045
:10F70000226802449570D37070BD00BF0C1A0020AF
:10F7100000800020101A0020F8B504462C4B1B680E
:10F720000BB9FFF7C5FF002C4CD02046FFF714FFA4
:10F730000446274B186885882A4647F6FF7600233B
:10F740000DE000EBC2010B88C3F30E039B1A9BB2C2
:10F750009C4203D89E4201D915461E468A88002A3B
:10F76000EFD147F6FF718E4201D115461E46EF00DC
:10F77000C35BC3F30E033BB3A64227D303D1284692
:10F78000FFF714FF19E04FF40043002221462846FA
:10F79000FFF7ECFE0E4B1B68DA19D18803EBC101B1
:10F7A0002C4420468C8003EBC404D188E1809188EE
:10F7B00003EBC103D8809388A380054B18683844B5
:10F7C0000430F8BD0020F8BD0020F8BD0020F8BDD1
:10F7D0000C1A00202DE9F04705460F463E4B1B68EA
:10F7E0000BB9FFF765FF25B93846FFF795FFBDE870
:10F7F000F0872FB92846FFF72DFF0020BDE8F087DE
:10F800003846FFF7A9FE0646334B1B68EC1AC4F3D3
:10F81000CF044FEAC40833F808301B1B9BB24FEAF1
:10F82000C309A9F10409984250D02046FFF7D8FE39
:10F83000294B1B689844B8F8020033F93030002B8C
:10F840001BDAB8F800301B1A9E4216DCFFF7AEFE3A
:10F8500000212046FFF7E6FE04464FEAC008DFF825
:10F8600078A0DAF8000040444A46294604301BF0EC
:10F8700001FEDAF8005045440435174B1B6833F895
:10F8800034301B1B9BB29E4223D010D200231A4659
:10F8900031462046FFF76AFE34440F4B1E6806EBE4
:10F8A000C4000430FFF7D6FE2846BDE8F08738468E
:10F8B000FFF732FF044618B14A4629461BF0CFFD38
:10F8C0002846FFF7C7FE2046BDE8F0872846BDE87A
:10F8D000F0872846BDE8F0870C1A002008B5FFF72E
:10F8E0001BFF08BD08B5FFF775FF08BD08B5FFF79A
:10F8F000B1FE08BD0020704708B5012101F070FB82
:10F900004FF0A042D2F804151030012303FA00F0A2
:10F9100020EA0103C2F808350840C2F80C050020AF
:10F9200008BD00BF08B5012101F05AFB10300123CA
:10F9300003FA00F000F4F0104FF0A043C3F80805FC
:10F940000020C3F80C0508BD08B5012101F048FBF3
:10F950001030012303FA00F000F4F0104FF0A04340
:10F96000C3F80C050020C3F8080508BD10B504460F
:10F9700000230DE04FF4F0121A4112F0010F06D0EF
:10F9800003F5E07203204FF0A04141F8220001335B
:10F990001F2BEFD944219FED080A204601F0C6FC39
:10F9A0000422002120460AF007FB002203492046DA
:10F9B00001F0E6FB012010BD0080FB43F4E00300F2
:10F9C00073DF704774DF70470238012802D80122C4
:10F9D000014B1A70704700BF882700200020704735
:10F9E000002070470020704770B59CB00646254D3A
:10F9F00016AC28686968AA68EB680FC4286920609B
:10FA0000AA8AAB7DA280A37113AD00241394149431
:10FA10005923ADF84C3016AB15931723ADF8503081
:10FA20003822214605A8FFF78DFD04238DF81730F5
:10FA30000E95214605A815F0E5FD18B1124930468E
:10FA400000F046FF002301930293039304930323E2
:10FA50008DF80430A023ADF80E3001A8FFF7B0FFF9
:10FA6000044618B10949304600F032FF022016F072
:10FA7000F5F9B4FA84F1490930460AF0C9F90120D0
:10FA80001CB070BD44E1030060E1030080E10300AD
:10FA900038B50446FFF796FF054618B107492046DA
:10FAA00000F016FF002016F0D9F9B5FA85F14909E2
:10FAB00020460AF0ADF9012038BD00BFA4E10300E3
:10FAC00008B5FFF7E5FF08BD00B589B0114B186810
:10FAD000079000235022104907A815F02BFE08B10B
:10FAE00014F026FF6A460021084615F087FE48B943
:10FAF000684615F09BFE38B9084815F067FE28B136
:10FB0000002004E0002002E0002000E0012009B015
:10FB10005DF804FB5CE10300141A0020C9F9010040
:10FB200010B50446FFF7D0FFB8B1002240F6CD4132
:10FB3000012016F0CDF944219FED0B0A204601F07B
:10FB4000F5FB0622002120460AF036FA002207497A
:10FB5000204601F015FB012010BD0549204600F0AC
:10FB6000B7FE002010BD00BF0080FB4330E2030061
:10FB7000C0E1030038B50C4650B105461CF094F8BE
:10FB80000146284600F02CFA0221074800F028FA26
:10FB900020461CF089F80146204600F021FA012198
:10FBA000024800F01DFA38BD68E20300580904005D
:10FBB00010B50C4C20461CF077F80146204600F0AA
:10FBC0000FFA0421084800F00BFA084C20461CF0FC
:10FBD0006BF80146204600F003FA0121044800F0CA
:10FBE000FFF910BD6CE2030074E203007CE2030045
:10FBF00058090400F0B583B004460E46174609F0D4
:10FC000077FE851B0022104920460AF0CFF801221A
:10FC10002946204609F090FE0023019300932B46CD
:10FC20003A46314620460AF055FB06464FF0FF3271
:10FC30002946204609F080FE6FF00101204609F0B8
:10FC40005FFE304603B0F0BD4DFC010010B5044628
:10FC50000022012109F0A0FF0246D0B9104A01217B
:10FC6000204601F0DFF930B14FF0FF31204609F0B6
:10FC7000BBFE042812D00121204609F0B5FE014642
:10FC8000204609F0C1FE0246064920460AF078F8EF
:10FC9000024601232146204600F07EFD012010BDD2
:10FCA00084E2030090E2030030B583B0044609F01B
:10FCB0001FFE051E25DD144A1421204600F0FEFE1D
:10FCC000124920460AF0C6F801221146204609F0E2
:10FCD00033FE0022019200921346294620460AF084
:10FCE000F9FA70B100224FF0FF31204609F054FFBD
:10FCF0000246074920460AF043F801460548FFF747
:10FD000039FF03B030BD00BFB0E20300C4E203001E
:10FD1000CCE20300E8E2030038B504460D4609B121
:10FD2000094900E0094920460AF094F800224FF002
:10FD3000FF31204609F030FF034618B90DB1044BDE
:10FD400000E0044B184638BDECE20300F4E2030087
:10FD500004E3030000E3030030B59BB004460D4606
:10FD6000FFF7DAFF0346642201A9204600F046F9B6
:10FD700018B36FF00101204609F0C2FD01A81BF085
:10FD800093FF38B1431E01AAD25C0A2A02D1002295
:10FD900001A9CA545DB19DF804303D2B07D10DF186
:10FDA00005020749204609F0EBFF012006E001A902
:10FDB000204609F0B7FF012000E000201BB030BD55
:10FDC00008E3030030B585B004460722184909F05E
:10FDD0008FFF6FF00101204609F0FAFD0221204655
:10FDE0000AF096FB03AA4FF0FF31204609F0D4FE3B
:10FDF000002300930F4B039A0146204600F0C2FFF8
:10FE0000054660B94FF0FF326FF00201204609F05D
:10FE100093FD6FF00101204609F072FD04E06FF0E0
:10FE20000201204609F06CFD284605B030BD00BF38
:10FE300014E303001CE30300032919D110B582B0B9
:10FE4000044601AA4FF0FF3109F0A6FE019B042BE6
:10FE50000CD9053B084918441BF021FD30B96FF05F
:10FE60000101204609F04CFD012003E0002001E0E3
:10FE70000020704702B010BD24E3030030B585B008
:10FE8000044603AA0121204609F086FE00230093C0
:10FE9000114B039A0146204600F074FF05460146C7
:10FEA0002046FFF7C9FFA0B100212046FFF754FF0D
:10FEB00078B101220949204609F01AFF01226FF0AA
:10FEC0000101204609F038FD032120460AF020FBFD
:10FED000D7E7284605B030BD1CE3030058090400ED
:10FEE00038B50446002109F00BFD01212046FFF73B
:10FEF00033FFA8B12046FFF765FF054618B120463D
:10FF0000FFF7BCFF05464FF0FF320121204609F004
:10FF100013FD6FF00101204609F0F2FC284638BDC0
:10FF20004FF0FF3038BD00BF38B50C4671B1054603
:10FF300000224FF0FF3109F02FFE01460448FFF781
:10FF400019FE6FF00101284609F0DAFC204638BDA1
:10FF50002CE3030010B50021154802F003FC044611
:10FF600001F0AEFF204600F08DF8FFF721FE0FE014
:10FF700028B94FF0FF3200212046FFF73BFE18B9A9
:10FF80002046FFF791FE03E001462046FFF7CCFF35
:10FF90002046FFF7A5FFB0F1FF3FE9D10021204641
:10FFA00009F0AEFC0121034800F01AF8F0E700BFA9
:10FFB000B9FF01005809040008B5084621B11BB972
:10FFC000FFF794FC002008BD43B118B11946FFF7B4
:10FFD00089FC08BD1846FFF781FC08BD002008BD5C
:10FFE00038B505E0451C007814F038FE2146284657
:10FFF0004C1E0029F6D1002038BD00BFF0B583B0FB
:020000022000DC
:100000000D4616461C4618461BF04EFE014620467D
:10001000FFF7E6FF2C4600E03C460DF1070014F028
:10002000FFFD0028F9D19DF807307F2B01D0082B68
:1000300007D1AC4205D903210D48FFF7D1FF013CA0
:10004000EBE70D2BE9D0621B711E8A42E5D2671CDB
:10005000237001210DF10700FFF7C2FF9DF8073063
:100060000A2BD9D100236370012003B0F0BD00BF7B
:1000700034E3030008B5002014F0CAFCFFF718FBB6
:1000800008BD00BF10B504460123064A064901F029
:10009000C7F80123054A0649204601F0C1F800F0DF
:1000A00039F910BD6DF9010038E3030021FB0100AF
:1000B000A0FF03003EDF704729DF704728DF70474D
:1000C00008B54FF080531B690021084A1170B0FB3E
:1000D000F3F0FFF7F3FF10B108BDFFF7EBFF034BA1
:1000E0001B7813F0FF0FF8D008BD00BF8827002051
:1000F00000B583B002AB43F8041D0021084A11701B
:1001000001221946FFF7D8FF10B106E0FFF7D2FF32
:10011000034B1B7813F0FF0FF8D003B05DF804FB1E
:100120008827002008B5FFF7CBFF002008BD00BFDF
:10013000F0B583B00D46164610F0030411D0C4F19B
:1001400004048C4228BF0C4620F003073A6802AB37
:1001500043F8042DC01B2246314618441BF07FF99A
:1001600021E00C46042928BF04240746036802A89E
:1001700040F8043D224631461BF071F913E0019925
:100180003846FFF7B5FF26442D1B04372C46042DB7
:1001900028BF0424042C01D03B6801932246314639
:1001A00001A81BF05CF9002DE9D1002003B0F0BDDF
:1001B00008B513460A46014618461BF050F90020C0
:1001C00008BD00BF38B505460C46154920461BF052
:1001D00066FBA8B1134920461BF061FB90B11249A0
:1001E00020461BF05CFB78B1104920461BF057FB02
:1001F00060B10F4920461BF052FB70B9192206E08E
:10020000082204E0182202E0162200E01C2200234B
:100210002946084811F038F838BD4FF0FF3038BD96
:100220006CED03003CE30300C8EE030040E3030071
:1002300034070400641A002008B50146014811F093
:1002400027FA08BD641A002010B51C4602FB01F312
:1002500002462146014811F047F910BD641A0020FA
:1002600010B51C4602FB01F302462146014811F07D
:10027000DBF810BD641A002008B513460A46014693
:10028000014811F07DF908BD641A002000B583B063
:10029000012301AA0146064811F0C6F8012801D140
:1002A000019801E04FF0FF3003B05DF804FB00BFA0
:1002B000641A002010B5044601234FF0FF320248B3
:1002C00011F05EF9204610BD641A002008B5014601
:1002D000014811F0C5F908BD641A002008B50146AF
:1002E000014811F01FFA08BD641A002038B5044611
:1002F0000D461046FFF7A0FF29462046FFF762FF94
:1003000038BD00BF08B50146014811F0DFF908BD4E
:10031000641A002010B588B0144B0793144B059352
:10032000144B0693002303930293019380230093BD
:10033000114B124A05A9124810F048FF114B984280
:1003400012D10F4C204610F07FFF204610F00CFF1A
:10035000002303930293019380230093064B074AE3
:1003600005A9204610F032FF08B010BD250102009B
:10037000B101020031010200C01A0020401B002020
:10038000641A0020D7D8FFFF08B50378022B03D1E9
:10039000406814F0CDFA08BD012B02D1406814F07A
:1003A000C7FA08BD30B58BB004AC0C4D0FCD0FC4EF
:1003B00095E8030084E80300094B009301230193AF
:1003C000084B02934FF4807303930623064A694651
:1003D00004A814F0BBFB0BB030BD00BF44E3030026
:1003E000401F0020441F00208903020000230DE06D
:1003F0004FF4F0121A4112F0010F06D003F5E0722B
:1004000003204FF0A04141F8220001331F2BEFD908
:1004100010B54FF0A0434FF4F012C3F808250024A4
:10042000C3F80C45FFF7BEFF2346074A05212046C7
:1004300014F0F4F908B114F07BFAFFF71BFE00206A
:10044000FFF788FDFBE700BF442000204B6823B185
:10045000136000234B60086870470020704700BF9E
:10046000F0B59BB0074601252E4601E02E466D00F3
:1004700001AA2946384601F0ABFA0028F6D10CE073
:10048000741904EBD474641001AA2146384601F0B3
:100490009FFA08B1661C00E02546AE42F0DB681EFC
:1004A0001BB0F0BD002A53D070B516460D46044669
:1004B0004FF0FF3109F098FA05284CD1204609F099
:1004C000FDFB3CE06FF00101204609F08DFA0428A5
:1004D00030D14FF0FF322946204609F0C3FA30B13F
:1004E0006FF00101204609F00BFA012334E0721E7F
:1004F00029462046FFF7D6FFE0B14FF0FF326FF0FC
:100500000101204609F018FA6FF00101204609F0B8
:10051000F7F901221149204609F0EAFB01226FF0A8
:100520000101204609F008FA0321204609F0F0FFF6
:10053000012311E06FF00101204609F0E1F96FF0AD
:100540000101204609F0CEFF03460028BAD103E09E
:100550000023184670470023184670BDD8E30300F7
:10056000F8B504460D4609F0C3F906462A46204967
:10057000204601F049FA1F4A1F49204609F0A0FC15
:10058000771C022239462046FFF78CFF40B3002239
:100590004FF0FF31204609F0FFFA054603221749C4
:1005A0001BF08AFB78B9E91C204609F0BBFB4FF031
:1005B000FF326FF00101204609F0BEF96FF0010132
:1005C000204609F09DF93A464FF0FF31204609F0E8
:1005D000D7F96FF00201204609F092F9012504E0F5
:1005E00005463146204609F08BF92846F8BD00BF84
:1005F00028E603005CE30300D8B9F0FF64E30300DE
:1006000038B505460C46FFF7ABFFB8B100224FF0F6
:10061000FF31284609F0C0FA02461A49284609F077
:10062000AFFB4FF0FF326FF00101284609F084F96B
:100630006FF00101284609F063F938BDA26813780C
:100640002BB163681049284609F09AFB38BDE3686E
:100650001B786D2B05D10A220C49284609F048FB6E
:1006600038BD432B07D0A36904F12402084928466A
:1006700009F086FB38BD01220649284609F038FBFF
:1006800038BD00BF68E3030078E3030080E30300A4
:100690008CE30300A0E30300F0B583B004460E46EC
:1006A00015461AF00FFB00681BF0F4FA074600220B
:1006B0002946204609F070FA0097431C3246094942
:1006C000204609F05DFB4FF0FF322946204609F035
:1006D00033F96FF00101204609F012F9072003B049
:1006E000F0BD00BFA4E3030038B50C4615460B6807
:1006F000002B03DD136000230B600DE0B1F9040053
:10070000FFF700FE50B9B4F904304FF480620121C4
:10071000A01DFFF7A5FD2860A01D38BD002038BD35
:1007200038B50446002303600D4D00E01546B4F9CA
:100730000400FFF7ABFDB0F1FF3F10D06A1C2B782F
:1007400098420CD12368591C2160234498716B781E
:10075000002BEBD12360B4F90400FFF797FD38BDFF
:10076000B8E3030038B504460D46FFF7D9FF28600B
:1007700023280FD1B4F90400FFF788FDB0F1FF3F43
:1007800001D00A28F6D1B4F90400FFF77FFD2860F4
:10079000012038BD002038BD2DE9F0479AB004464D
:1007A0000F4616461D4609F0A3F881463846FFF766
:1007B00057FE8246162802DD4FF00C0801E04FF08C
:1007C000000826B132462949204609F0D9FA1022FC
:1007D0002749204609F08CFA34E0B04507D10522BC
:1007E0002449204609F084FAAAF10A052AE001AA60
:1007F0002149384601F008F90AAA2049204609F0A3
:10080000BFFA069A002A03DD1D49204609F0B8FA0E
:1008100004221C49204609F06BFA01A92046FFF783
:10082000EFFE9DF8273023B114221749204609F026
:100830005FFA204609F05CF8C9EB0001204609F098
:1008400067FE35466E1C01AA2946384601F0C0F8FD
:100850000028C2D1204609F04BF8C9EB0001204620
:1008600009F056FE1AB0BDE8F08700BFBCE30300F4
:10087000C0E30300D4E30300DCE30300E4E303008C
:10088000ECE30300F0E30300F8E3030010B59AB0D3
:10089000044601AA01F09CF868B101AA0949204662
:1008A00001F0B2F8069B002B05DD0AAA0649204696
:1008B00009F066FA04E000220449204609F018FA1B
:1008C0001AB010BD10E4030014E40300FC08040097
:1008D0000EB430B582B0044605AB53F8045B019307
:1008E0000121FFF7D3FF019A2946204609F038FA83
:1008F0000221204609F00CFE204609F0EFFD02B06F
:10090000BDE8304003B0704770B59CB005460C465A
:10091000164603AA002101F05BF830B9334622469F
:1009200018492846FFF7D4FF29E003AA16492846AC
:1009300001F06AF8154905981AF0B1FF40B9013C79
:1009400006D13346049A12492846FFF7C1FF16E044
:10095000049B6BB903A92846FFF702FE30B10022C1
:100960004FF0FF31284609F017F900E009480490DC
:100970000096049B224608492846FFF7A9FF1CB0B1
:1009800070BD00BF1CE4030054E80300B4E603009C
:1009900034E40300A0E3030054E40300F8B5044684
:1009A0000F4616461AF08EF905682FB10121204630
:1009B00009F02EFA0120F8BD204609F07FF94EB16A
:1009C00028461BF067F9034632460949204609F0DC
:1009D000D7F906E028461BF05DF90146204609F0EC
:1009E000A1F92946204609F07BF90320F8BD00BF94
:1009F00074E4030038B504460D460A46124909F06E
:100A00005FFAF8B96FF00101204608F079FF002283
:100A10001146204609F0D0FA2946204609F082F90D
:100A20000A4A6FF00101204609F02AFB4FF0FF311E
:100A3000204608F0CDFF2A460349204609F020FB56
:100A4000012038BD002038BDD8B9F0FF84E4030090
:100A500010B504460A46044909F032FA6FF0010164
:100A6000204609F0C5FB10BDD8B9F0FFF8B5044623
:100A70000E46174609F0D4F8D0B105463146204657
:100A800009F0BAFAB0B13A460B49204609F018FA13
:100A90006FF001024FF0FF31204608F0E3FF00B98C
:100AA00000256FF00201204608F02AFF2846F8BD15
:100AB0000020F8BD0020F8BDD8B9F0FF38B50546D4
:100AC0001446143108F0AEFE50B92CB12246054947
:100AD0002846FFF7FDFE38BD03492846FFF7F8FE1C
:100AE00038BD00BF8CE40300A0E4030038B5044621
:100AF0000D4608F079FFB0F1FF3F04D1024A2946C4
:100B00002046FFF701FF38BDB0E40300F8B5044606
:100B1000C66845688368EA1A8A4229D26D00EA1AD3
:100B2000914200D95D189D4202D3EB1A994203D934
:100B300011493046FFF7CCFE2946304609F018FD32
:100B40000746A26821681AF08AFC234653F8102B46
:100B50009A420BD04FF0FF326FF00101304608F09F
:100B6000EBFE6FF00101304608F0CAFE27606560B9
:100B70002068A3681844F8BDC0E4030070B50546BA
:100B80000E4614461146FFF7C1FF224631461AF0C1
:100B900066FCAB681C44AC6070BD00BF38B5054650
:100BA0000C4608461BF080F8024621462846FFF70F
:100BB000E5FF38BD38B50446C56882680168284637
:100BC00009F096F854F8103BA3420BD04FF0FF32D7
:100BD0006FF00101284608F0AFFE6FF001012846D2
:100BE00008F08EFE38BD00BF08B5836819448160E7
:100BF000FFF7E0FF08BD00BFF0B583B00546C6684B
:100C000001AA4FF0FF31304608F0C6FF07462C46D8
:100C100054F8103BA34205D001226FF00101304689
:100C200008F08AFE019A39462846FFF7A7FF2B688D
:100C30009C4202D06FF0010101E04FF0FF314FF014
:100C4000FF32304608F078FE6FF00101304608F0C0
:100C500057FE03B0F0BD00BFC86001F110030B6088
:100C600000238B604FF400634B60704738B50C462F
:100C70001546FFF7F1FF29462046FFF747FF38BD2D
:100C8000F0B5ADF21C4D04460D46164608F030FE98
:100C9000471C2DB93A4635492046FFF7FDFC61E077
:100CA0002A463349204609F06BF832492846FFF7B7
:100CB00089FAADF81400B0F1FF3F05D13A462B494F
:100CC0002046FFF7E9FC4DE003A904A8FFF74AFD21
:100CD00030B1049B5A1C049204AA13440A229A714C
:100CE000039B1B2B15D1A5B1BDF914202249284621
:100CF000FFF7FCFAADF81400B0F1FF3F05D13A461A
:100D00001E492046FFF7C8FC2CE003A904A8FFF702
:100D100029FD039AB2F1FF3F05D0049B591C0491B1
:100D200004A90B449A7100224FF0FF31204608F0CD
:100D300033FF0096034604AA1149204609F01CFB24
:100D400006461DB1BDF91400FFF776FA4FF0FF32E9
:100D50003946204608F0F0FD6FF00101204608F00A
:100D6000CFFD30460DF21C4DF0BD00BFD4E40300B2
:100D7000DCE403006CED0300E0E40300E4E40300C2
:100D8000E906020000B585B002910392069A00922E
:100D900002AA034909F0F0FA05B05DF804FB00BFB0
:100DA0004D04020038B50546144609F025F90346FE
:100DB000F0B12146284608F0B5FF6FF00101284642
:100DC00009F0B6F8044630B96FF00201284608F081
:100DD00097FD23460CE04FF0FF326FF001012846EB
:100DE00008F0AAFD6FF00101284608F089FD2346AE
:100DF000184638BD70B504460D461646144AFFF72E
:100E0000D1FF042807D100224FF0FF31204608F01F
:100E1000C3FE034610E02946204608F0E5FD0228FF
:100E200009D02946204608F0DFFD0146204608F09B
:100E3000EBFD034600E0074B32460749204608F029
:100E40009FFF024629462046FFF75EFD70BD00BFAA
:100E500084E40300ECE40300FCE40300F8B5054679
:100E60000E461746FFF702FE044620B93A463146C1
:100E70002846FFF7BFFF2046F8BD00BF38B504463F
:100E80000D46114608F0C0FD024629462046FFF7F0
:100E9000B1FF38BD70B505460E46144608F0A4FDF6
:100EA000A04204D0224631462846FFF7E7FF70BD36
:100EB00070B505460E4608F06FFE044620B90422C0
:100EC00031462846FFF7DAFF204670BDF8B50646E2
:100ED0000F4614461D4608F087FD002809DC75B151
:100EE0001CB120461AF0E0FE00E0002028602046F9
:100EF000F8BD2A4639463046FFF7DAFFF8BD2046EE
:100F0000F8BD00BF2DE9F041074688461D462AB1CD
:100F100000234146FFF7DAFF064603E00022FFF711
:100F2000C7FF0646002404E031461AF0B8FC80B141
:100F3000013455F824000028F6D1324606493846D7
:100F400008F01EFF024641463846FFF7DDFCBDE8CB
:100F5000F0812046BDE8F08110E5030030B52DEDAD
:100F6000028B83B004460D4601AA08F0D5FDB0EE11
:100F7000408A019B23B9032229462046FFF77EFFC2
:100F8000B0EE480A03B0BDEC028B30BD38B52DED94
:100F9000028B04460D46B0EE408A08F025FD00287D
:100FA00004DD29462046FFF7D9FF01E0B0EE480AEC
:100FB000BDEC028B38BD00BF38B504460D4608F0C5
:100FC00035FD28B1054A29462046FFF79DFC38BD6E
:100FD000032229462046FFF751FF38BD24E50300D0
:100FE00070B582B005460E4601AA08F0ADFD044674
:100FF000019B1BB931462846FFF7DEFF204602B0B1
:1010000070BD00BF70B505460E46144608F0ECFCF6
:10101000002804DD31462846FFF7E2FF70BD204678
:1010200070BD00BF70B582B00446164608F04EFC95
:101030000546324601462046FFF7B4FE034658B146
:101040002946204608F0C4FC0023009301221146E3
:10105000204609F017F90123184602B070BD00BF01
:1010600030B583B0044609F075FA01AA4FF0FF319C
:10107000204608F069FD0546019B1BB9054920463D
:10108000FFF726FC6FF00101204608F039FC2846E6
:1010900003B030BD4CE50300F8B504460E461546D6
:1010A000304AFFF7BFFF002854D13146204608F0F0
:1010B0009BFC04283BD8DFE800F034283A032300E7
:1010C0003146204608F0A8FC50B1002231462046A7
:1010D00008F03AFD02462449204608F051FE39E066
:1010E00000223146204608F017FD10EE100A19F0D4
:1010F00077FA02460B461D49204608F041FE29E0DA
:101100003146204608F064FC24E03146204608F0D1
:1011100033FD08B1164900E01649204608F002FEEA
:1011200018E003221449204608F0E2FD12E031469F
:10113000204608F059FC0146204608F065FC0746A9
:101140003146204608F088FD03463A460B492046C2
:1011500008F016FE2A464FF0FF31204608F01CFD2D
:10116000F8BD00BF84E203007CE5030080E50300D6
:101170006CE5030074E5030084E5030088E50300E3
:10118000F8B506460F461546114A2946FFF796FC64
:1011900015E06942304608F01BFC013400E00024F1
:1011A000AC42F6DB2A467968304608F0FFFD57F876
:1011B000082B6FF00101491B304608F061FF3B68C6
:1011C000002BECD1E943304608F09AFBF8BD00BF94
:1011D00090E5030070B504460E46154608F070FE13
:1011E00005281AD06FF00101204608F089FB31462E
:1011F000204608F06BFB064600221146204608F008
:10120000DBFE4FF0FF31204608F0E2FB2A46314674
:10121000204608F035FF002070BD012070BD00BFE2
:10122000F0B583B004460D4617461E46234A2449AE
:10123000FFF7D0FF2A464FF0FF31204608F040FE6E
:101240004FF0FF31204608F097FCF8B96FF001012C
:10125000204608F055FB00223946204608F0A6FD3E
:101260002946204608F05EFD002300930122114626
:10127000204609F007F84FF0FF31204608F0A8FBA0
:101280002A466FF00201204608F0FAFE4FF0FF32C6
:101290006FF00101204608F04FFB6FF0010120467E
:1012A00008F02EFB46B14FF0FF31204608F090FBCE
:1012B0002946204608F0C2FE03B0F0BD5CE30300FF
:1012C000D8B9F0FF2DE9F043ADF6140D81460C4678
:1012D0001646984610461AF0E7FC07466946484607
:1012E000FFF7BAFC09E02A1B21466846FFF746FCD7
:1012F00041466846FFF752FCEC19314620461AF089
:101300002BFD05460028EED121466846FFF746FC36
:101310006846FFF74FFC00224FF0FF31484608F0C7
:101320003BFC0DF6140DBDE8F08300BFF0B52DEDCC
:10133000028B83B00546B0EE408A0E4608F0BCFA38
:101340000446442E03D015492846FFF7C1FA002071
:1013500008F0B2FA844204D011492846FFF7B8FADF
:1013600018E0D4ED008AF4EE488AF1EE10FA11D0BC
:1013700018EE100A19F034F906460F4618EE900AD6
:1013800019F02EF9CDE9000132463B4605492846C1
:10139000FFF79EFA03B0BDEC028BF0BDA4E503009D
:1013A000D8E50300F4E50300436902681268D268D7
:1013B000106B181A80100138704700BF10B5036811
:1013C0001B68DB689C6B24B1FFF7EEFF54F820002C
:1013D00010BD4FF0FF3010BD036C53F8310008B161
:1013E0001830704700487047A0E30300884201DAD4
:1013F0004FF0FF30704700BF2DE9F04106460D4623
:1014000017464FF000084FF0FF30444656E0336B6C
:1014100053F8243003F03F0EC3F38711AEF10402FA
:10142000252A3CD8DFE802F0133B3B3B3B3B3B3BF0
:101430003B3B3B3B3B3B3B3B3B3B3B3B3B3B3B3BFC
:101440003B3B2D3B3B3B3B3B26263B3B3B1EDB0DCF
:10145000B94232DC0B449F422FDC41462046FFF765
:10146000C5FF2AE08B1C9F4227DB41462046FFF741
:10147000BDFF22E0B94220DC41462046FFF7B6FF1F
:101480001BE09B0BA3F5FF33A3F2FF13621C134475
:101490009C4212DA9D4210DB98450DDB0DE0094BB2
:1014A00013F80E3013F0400F07D0B94205D1414672
:1014B0002046FFF79BFF00E098460134AC42A6DBD4
:1014C000BDE8F08198EB03000269891AC91006D4BF
:1014D00043689B1AB1EBE30F03DB00207047002049
:1014E00070470120704700BF10B5036818680023DB
:1014F0000EE01C1D50F8244024688C4207D114468D
:101500001946C068FFF768FF2060044810BD01332A
:101510008479A342EDDB002010BD00BF38E6030054
:1015200008B511B10A79262A08D10F4B03614FF093
:10153000FF338361C3610D4BC3600FE0CA68936CD6
:101540000BB1183300E00A4B0361536A8361926A5E
:10155000C2610BB9074B00E0074BC3603C22016935
:10156000243003F04BFB08BD60E6030068E603008F
:1015700050E6030054E603005CE603002DE9F04169
:1015800080460D4616461F460A46711C0AF058F959
:10159000386000286BD10446324629464046FFF7A2
:1015A0002BFF0546B0F1FF3F66D0D8F8302052F847
:1015B000201001F03F030C2B5ED8DFE803F0073862
:1015C000385D5D3113135D5D5D5D4F00CA0DC1F384
:1015D00087118A4250DA3B4629464046FFF7CEFF44
:1015E000044649E0C1F38836C90D072B06D12A46C7
:1015F000013140460AF024F9044603E04046FFF773
:10160000EBFE04463B4632462946404600F02CF9A4
:101610007CB31B4920461AF042F960BB194C2BE001
:10162000C90D4046FFF7D8FE3860174C24E0012B67
:1016300001D1890B03E0013552F825108909D8F84A
:101640002C2002EBC1035B6803F00F03042B13D1C2
:1016500052F8313018333B600C4C0DE03B46C1F37F
:1016600088322946404600F0FFF8094C04E0094C56
:1016700002E0094C00E0084C2046BDE8F08100BFC4
:1016800090E6030088E6030038E603007CE60300EA
:10169000B4E603006CE6030074E60300F8B5064602
:1016A0000C4615460B681B68DF680846FFF77CFE92
:1016B0003B6B53F8202094F8223013F0040F03D032
:1016C000224B2B602248F8BD02F03F03A3F1080132
:1016D000212912D8DFE801F031113111111E1E1E2F
:1016E0001E1E1E1E1E1E1E1E1E2325112729112B07
:1016F0002D2F111113131111111B00231EE02B4666
:10170000C2F3871201463846FFF738FFF8BD11488B
:101710002860F8BD0D3BDBB20633DBB20EE01223CE
:101720000CE013230AE0042308E0162306E0052357
:1017300004E0142302E0152300E00123F2682233C1
:1017400052F8233018332B600348F8BDA0E30300A0
:1017500098E60300A0E60300B0E603002DE9F84395
:1017600081460C4615461F46089E4FF0010872E060
:101770004C3B292B6CD8DFE803F06D6B6B6B6B6B0C
:101780006B156B6B6B6B6B6B6B6B6B6B6B6B6B6BFF
:101790006B6B6B6B6D6B6B6B6B6B1A6B506B6B6B03
:1017A0006B6B452B39462846FFF7BAFE52E046B12F
:1017B00096F8223013F0020F06D03046FFF7FEFDF8
:1017C00004E04FF0FF3001E04FF0FF30686141E08E
:1017D0000FB1BB7900E0002385F8203017B13B79C9
:1017E000262B06D1012385F82230002385F82130ED
:1017F00030E0FB68DB7985F82230FB689B7985F85F
:10180000213027E02EB196F8223003F02003DBB21E
:1018100000E0002385F823301CE086B196F82230E2
:1018200013F0200F0BD1B16891F8223013F0020FA2
:1018300005D02A1D4846FFF731FFA86001E00023CC
:10184000AB60AB6833B9074BAB6000236B6001E062
:101850004FF0000801342378002B89D14046BDE8C1
:10186000F88300BFFC08040010B51C4612F4807F0A
:101870000ED0C16A22F4807201EBC2035B6803F0F0
:101880000F03042B0AD151F832301833236010BDF6
:10189000FFF774FE10B10378632B01D0014B236076
:1018A00010BD00BFA0E303002DE9F04182B019B1E3
:1018B0000E460B79262B06D1836800225A60836876
:1018C000083383601EE00546CB68D3F838800AF001
:1018D000F5FB0746AB68186045225A60AB680833D1
:1018E000AB60012300930193002407E06B4658F896
:1018F0002420394628460AF0D3FC0134F3689B695A
:101900009C42F3DB02B0BDE8F08100BFF0B583B0CC
:10191000054600230193066996F8223013F0020F62
:101920001BD00F4601AA3046FFF7DEFD0446A8B9DA
:1019300039463046FFF7C8FD80B133681B68DC6864
:101940003046FFF731FD3269BA1A01ABD2100146B9
:101950002046FFF713FE044600E0002434B1019B4B
:1019600022460449284603F043F800E0024803B049
:10197000F0BD00BFBCE60300FC080400F0B593B066
:10198000046994F8223013F0020F1DD00E4605466C
:101990002046FFF713FD074623681B68DB68996C38
:1019A00029B13C22183103A803F028F905E03F23B0
:1019B0008DF80C3000238DF80D3000963B4603AABD
:1019C0000249284603F014F813B0F0BDC8E603003E
:1019D000002911DB10B4036901E001399B6800297B
:1019E00003DD00F13004A342F7D139B9303083422E
:1019F00006D01366012004E000207047002000E0BC
:101A000000205DF8044B70472DE9F04182B0044698
:101A10000D460B783E2B05D18668083E0135866061
:101A2000002101E0116E0E68736803F01F03062B9E
:101A300001D1376800E0002700913B462946204647
:101A4000FFF78CFE80466621284619F01AFF38B150
:101A5000A36896E8030083E80300A3680833A36043
:101A60004C21284619F00DFF18B139462046FFF7E2
:101A70001BFF404602B0BDE8F08100BF08B5044638
:101A8000836DABB1C2691344826812E9030082E836
:101A90000300A26893E8030002E90300A16801F1D2
:101AA0000803A360002301220839204607F002FD45
:101AB0000221204607F098F90EB400B582B0044622
:101AC00003AA52F8041B019202F0A0FF014620462F
:101AD000FFF754FF2046FFF7D1FF00BF00B583B0EA
:101AE000044615464B6803F00F030133054A52F8CC
:101AF0002360FFF70BFF009033462A460249204639
:101B0000FFF7DAFF68E70300D4E6030008B54B6887
:101B100003F00F03033B012B00D81146014AFFF7E6
:101B2000DDFF00BFF0E6030080B582B006460C463C
:101B300015461F464B68032B03D10B680193002009
:101B400006E001A9204603F0B9F9B0FA80F0400997
:101B500000B125463A4629463046FFF7BFFF00BF91
:101B600000B583B005460C4616464B68132B03D1CF
:101B70000B680193002006E001A9204603F010FA4B
:101B8000B0FA80F0400900B1264631462846FFF7FA
:101B9000BDFE024601492846FFF78EFFFCE6030022
:101BA00008B54B6803F00F030133094C54F82310B8
:101BB000536803F00F03013354F82330994203D1E3
:101BC0000A460449FFF778FF0A460349FFF774FF06
:101BD00068E7030024E7030048E70300F8B5056958
:101BE00090F86C7017F0080F03D0436E1BB10026FD
:101BF00002E0002600E001260EB1036E436695F870
:101C0000223013F0400F04D023F0400385F8223037
:101C1000F8BD044626B14FF0FF32032107F066FA03
:101C200017F0040F1FD02B681B68DA686869176B00
:101C3000C31B9B10013B916B11B151F8232001E0B4
:101C40004FF0FF325BB16369984208D919B1DB1BD1
:101C5000043BCB5801E04FF0FF339A4203D00221FE
:101C6000204607F043FA6B696361A379012B11D118
:101C700006B163666B69043B6B6195F8223043F0F3
:101C8000400385F82230A368083B2B6001212046E1
:101C900007F0AAF8F8BD00BF70B50546002411E0B2
:101CA000EE680A4B53F82410284606F0E1FF04F1D1
:101CB000220346F82300EA6852F82310284609F068
:101CC0005BFA0134172CEBDD70BD00BF94E7030015
:101CD00038B504460D4611460AF07EFA436833B91A
:101CE000012303FA05F5A3791D43A571002038BD32
:101CF00010B54B6803F00F03052B02D0072B03D060
:101D000005E00B689C6906E00B689C6803E0C1680D
:101D10003A3351F823403CB1C368223253F82210C1
:101D200020460AF059FA10BD004810BD1CF103000E
:101D3000F8B50446DDF818E0079FC669C6EB0E0645
:101D4000856805F10800A06003C985E80300A5685F
:101D500005F10801A16092E8030085E80300A2688C
:101D600002F10801A16093E8030082E803003FB993
:101D7000A36803F10802A2609EE8030083E8030061
:101D8000A068C7F10401236993F8223003F002032D
:101D90003A46A0EBC101204607F08CFB47B1E2694F
:101DA0003244A368083BA36093E8030082E8030081
:101DB000F8BD00BF2DE9F04182B005460F4616463A
:101DC00098469DF820402246FFF792FF436823B9CA
:101DD000224631462846FFF78BFF436853B1012462
:101DE0000194CDF8008033463A4601462846FFF775
:101DF0009FFF2346184602B0BDE8F081F0B585B0DC
:101E000007460E4615469DF828400094FFF7D2FF7E
:101E1000002835D10D3C092C2CD8DFE804F00A0A43
:101E20000A0A0A2B0A2B2B052A4631463846FFF7A9
:101E30006DFE7368032B02D13368039304E003A99A
:101E4000304603F03BF878B16B68032B02D12B6866
:101E5000039304E003A9284603F030F820B12A4692
:101E600031463846FFF77CFE064B2A463146384657
:101E7000FFF75AFE044B2A4631463846FFF754FE18
:101E800005B0F0BDF4E7030014E8030010B582B01C
:101E9000044600938368FFF78DFF40B1A36858683C
:101EA00040B1012808D11B683BB9002005E04FF084
:101EB000FF3002E0002000E0012002B010BD00BFB2
:101EC00038B50546084C0AE0012354F8081B28469B
:101ED000FFF7A6F96FF00101284607F011FD6268CF
:101EE000002AF1D138BD00BF40E9030008B5DFED9D
:101EF0000C7AB4EEE70AF1EE10FA0DDBDFED097AA9
:101F0000B4EEE70AF1EE10FA06D5FDEEC07A17EE50
:101F1000901A07F0E5FE08BD07F0D8FE08BD00BF27
:101F2000000000CF0000004F10B50446012107F06B
:101F30005BFD032810D10121204607F06DFD28B17B
:101F400007220A49204607F0D3FE0CE00522084983
:101F5000204607F0CDFE06E001212046FEF7C6FD33
:101F6000204607F0ABFE012010BD00BF64E5030072
:101F700078EA030010B504460121FEF7EFFFDFED1C
:101F8000047A20EE270A204607F0A0FE012010BDAB
:101F900035FA8E3C10B504460121FEF7DFFFDFED78
:101FA000047A20EE270A204607F090FE012010BD9B
:101FB000E02E654210B504460121FEF7CFFF15F073
:101FC000DBFB204607F082FE012010BD10B5044661
:101FD0000121FEF7C3FF16F02DF8204607F076FE2C
:101FE000012010BD10B504460121FEF7B7FF15F022
:101FF00079FB204607F06AFE012010BD08B50121DB
:10200000FEF7ACFFFDEEC07A17EE900A19F00CFB5C
:1020100019F032FB002008BD2DE9F041044619F00B
:102020002BFB18F0CBFA00224FF0785318F02CFB62
:1020300006460F46204607F05BFC01280ED002281A
:1020400013D0E8B93046394618F0E0FD00EE100A2A
:10205000204607F03BFE0120BDE8F081012120462B
:10206000FEF7BEFF8046012510E001212046FEF765
:10207000B7FF054602212046FEF7B2FF804605E085
:1020800017492046FEF724FCBDE8F081454504DDF4
:10209000144A01212046FEF737FC002D09DA05F12C
:1020A0000043013B984504DD0F4A01212046FEF71D
:1020B0002BFCC5EB080018F081FA00220B4B18F03E
:1020C00031F902460B463046394618F0DDFA18F071
:1020D00075FD2918204607F003FE0120BDE8F081B8
:1020E00080EA03009CEA0300B0EA03000000F03F2E
:1020F00010B50446012107F08FFC20B101212046D4
:1021000007F0FEFB08E001212046FEF727FF15F04F
:10211000DFF92046FFF7EAFE012010BD10B52DEDD6
:10212000028B0446012107F077FC48B101212046CB
:1021300007F0E6FB9FED170A204607F0C7FD25E0F4
:1021400001212046FEF70AFFB0EE408AB5EEC00A34
:10215000F1EE10FA04D515F0BBF9F0EE408A03E079
:1021600015F04CFAF0EE408AB0EE680A2046FFF710
:10217000BDFEF4EE488AF1EE10FA02D038EE680A9D
:1021800001E09FED040A204607F0A0FD0220BDEC0F
:10219000028B10BD0000000010B50446012107F0BD
:1021A0003BFC20B10121204607F0AAFB08E00121F9
:1021B0002046FEF7D3FE15F021FA2046FFF796FEE3
:1021C000012010BDF8B5064607F092FB071E04DC9F
:1021D0000C4A01213046FEF797FB0224012508E056
:1021E00001232A462146304607F058FC00B1254617
:1021F0000134BC42F4DD2946304607F0E9FB0120FA
:10220000F8BD00BFB0E40300F8B5064607F070FB68
:10221000071E04DC0C4A01213046FEF775FB022440
:10222000012508E0012322462946304607F036FC06
:1022300000B125460134BC42F4DD2946304607F0A2
:10224000C7FB0120F8BD00BFB0E4030010B52DEDC1
:10225000028B04460121FEF781FEF0EE408A022146
:10226000204607F0C1FB002804DCB0EE680A15F038
:1022700055FC1DE002212046FEF770FEB0EE408ABC
:10228000F2EE047AB4EE670AF1EE10FA04D1B0EE81
:10229000680A15F0BFFC0BE0B0EE680A15F03EFCD2
:1022A000F0EE408AB0EE480A15F038FC88EE800A5D
:1022B000204607F00BFD0120BDEC028B10BD00BFD6
:1022C00038B504460121FEF78BFE05460221204663
:1022D000FEF786FE85422CBF00210121204607F033
:1022E00097FD012038BD00BF10B582B0044601AA99
:1022F000012107F029FC019B23B10146204607F08C
:10230000EFFC06E001212046FEF7F0FB204607F037
:10231000D5FC012002B010BD38B52DED028B04466E
:10232000012107F079FB28B30221204607F074FB56
:1023300000B300220221204607F006FC0546431C9C
:10234000012B0AD820B9174A02212046FEF7DCFAF1
:102350000021204607F0C4FC1FE000220121204696
:1023600007F0F2FB90FBF5F105FB1101204607F0A9
:10237000B7FC12E001212046FEF7F0FDB0EE408AE6
:1023800002212046FEF7EAFDF0EE400AB0EE480AD0
:1023900015F064FB204607F099FC0120BDEC028B90
:1023A00038BD00BFC4EA030010B504460121FEF7A2
:1023B000D5FD15F0D1FA204607F088FC012010BDAC
:1023C00010B504460121FEF7C9FD15F0C7F82046F7
:1023D00007F07CFC012010BD10B52DED028B0446EA
:1023E0000121FEF7BBFDB0EE408AB7EE000A0221E4
:1023F0002046FEF7CBFDF0EE400AB0EE480A15F09D
:10240000A9FA204607F062FC0120BDEC028B10BD4A
:1024100010B504460121FEF7A1FD15F03BFA204658
:1024200007F054FC012010BD10B504460121FEF751
:1024300095FD15F0CFF9204607F048FC012010BDAE
:1024400010B50446012107F0E7FA58B10022012136
:10245000204607F079FB011E00DA4942204607F0CA
:102460003FFC08E001212046FEF778FD15F0BEF89C
:10247000204607F02BFC012010BD00BF10B504461C
:1024800044219FED1E0AFEF751FF1B22002120462A
:1024900007F092FD00221A492046FEF771FE9FEDDB
:1024A000190A204607F012FC174A6FF00101204676
:1024B00007F0E6FD9FED150A204607F007FC144AD9
:1024C0006FF00101204607F0DBFD6FF00041204670
:1024D00007F006FC0F4A6FF00101204607F0D0FD1F
:1024E0004FF00041204607F0FBFB0B4A6FF0010163
:1024F000204607F0C5FD012010BD00BF0080FB4352
:1025000098E90300DB0F4940CCEA03000000807F1C
:10251000D0EA0300D8EA0300E4EA0300C160002324
:10252000C3610361C3658062C362A0F86A3043651A
:1025300080F86C300366012280F86D2043660362E8
:10254000A0F8682083718365704700BF10B504460A
:1025500008464FF4A073002211460AF071FDE061B5
:102560002823E365002305E0E26902EBC3020021B2
:1025700051600133272BF7DDE269E36D03F100536E
:10258000053B02EBC303A36104F130010023A36305
:10259000E36384F85230226302F10800A0605360C4
:1025A000A368A0336363216110BD00BFF0B583B0A1
:1025B00004460F4609F082FD054678624526BE6254
:1025C000002302220146204609F08AFE0094482397
:1025D00001936B4601222946204609F061FE204600
:1025E00009F06CFD009001966B46022229462046B8
:1025F00009F056FE03B0F0BD38B50446C568014683
:10260000FFF7A4FF29462046FFF7D0FF40212046D0
:1026100006F05CFA2046FFF73FFB204604F01EFF61
:1026200011220949204606F00BFB0146C5F884003B
:10263000204608F0A1FD012385F83330002007F083
:102640003BF9C5F8800038BD84EB030010B586B0B7
:102650000123019306AC44F8180D0422214602A878
:1026600018F0FDFE01AB00930422214603A818F0E8
:10267000F6FE0A4B00930422214604A818F0EFFE50
:10268000074B00930422214605A818F0E8FE019AA2
:10269000102102A806F006FA06B010BD1CF10300D6
:1026A00065270200C368CA1A83689B1A8360C160E9
:1026B000704700BF10B504462423002211460AF0DB
:1026C000BFFC2269D060226982600022C26010BD16
:1026D00038B505460369D9680022DA6006E0CC689F
:1026E0000023242228460AF0ABFC21460029F6D11B
:1026F00038BD00BFC36973B110B5044600F13003A3
:102700000361FFF7E5FFE26D0023D200E169204697
:102710000AF096FC10BD7047F8B50446C568C1695B
:1027200009F01AF8204608F0CBFEE1680A6A002397
:102730009200896920460AF083FC0023AA6E296E64
:1027400020460AF07DFC28660026AE662046FFF78C
:10275000D1FF2F6833464FF4C072211F6868B84715
:10276000F8BD00BF2DE9F04180460F464FF4C0731D
:10277000082200213846C04700286AD00546061DB9
:102780000024446008230372012380F8A4304372BC
:1027900000F174013046FFF7C1FEC5F87480AF67E1
:1027A000C5F8F0603046FFF751FFC5F8A00085F886
:1027B000A740C5F88840C5F89040C5F89440C5F8D2
:1027C0008C40C5F89C40C5F8D440C5F8DC40C5F83D
:1027D000EC40C5F8F440072385F8A53085F8A640FD
:1027E000C5F8CC40C5F8C840C5F8B040C5F8A84009
:1027F000C5F8AC40C5F8B840C5F8B440C5F8C44009
:10280000C5F8C040C5F8BC40C5F8D0404FF4C0730F
:10281000EB67C5F88040C5F8E040C823C5F8E43050
:10282000C5F8E830234606E003F13A0205EB8202E0
:10283000002151670133082BF6DD0022084930469C
:1028400006F06CFB40B13046FFF766FF0020BDE8A4
:10285000F0810020BDE8F0813046BDE8F08100BF86
:10286000F925020070B50646056909E0CC6854B147
:102870000023242230460AF0E3FBEC60A5602546E5
:10288000E9680029F2D170BDF8B50446C668F3685E
:10289000002B01DD08F04CFE7423082200212046A5
:1028A0000AF0CEFB0546071D96F8303003F003030F
:1028B000437208230372736B43607763A3681F60DE
:1028C00048225A60A3680833A36031463846FFF7B0
:1028D00025FE94F86C3085F87030236E6B66626D5F
:1028E000AA65AB66F16F04220439284618F0B7FDDB
:1028F00021463846FFF72AFE3846F8BD70B5054632
:102900000C460E1FC969204608F026FF2046FFF737
:10291000F1FE00237422314628460AF091FB70BD77
:10292000002806DA43428B4202D80844013070473F
:102930000020704710B5354B1C6863185B7803F0B6
:102940000303012B02D101F1200200E00A46613AA3
:10295000192A50D8DFE802F00D4F12184F4F1E4FC2
:102960004F4F4F234F4F4F2C4F4F324F384F414611
:102970004F4B2044407800F0030041E02044407871
:1029800000F02000C0B23BE02044407800F004009A
:10299000C0B235E02044407800F0170030E0204419
:1029A000407800F00300022814BF0020012027E037
:1029B0002044407800F01000C0B221E0204440786C
:1029C00000F00800C0B21BE02044407800F0030093
:1029D000012814BF0020012012E02044407800F0BC
:1029E00007000DE02044407800F0440008E0B0FA11
:1029F00080F0400904E0814214BF0020012010BD96
:102A0000022B02D0B0FA80F0400910BDA4190020BA
:102A1000F8B5054614464B785E2B02D101310027EC
:102A20001DE001271BE00B78252B07D14E1C4978B0
:102A30002846FFF77FFFC0B9314610E04A782D2ABB
:102A400009D18A1C944206D9AB4207DC8B789D429F
:102A50000DDD114603E09D4201D10AE0114601312E
:102A6000A142E0D387F00100F8BD3846F8BD3846F2
:102A7000F8BD3846F8BD00BF8068884216D910B549
:102A8000087814782E2C13D011465B2C05D0252CF9
:102A900007D15178FFF74EFF10BD5A1EFFF7B8FF60
:102AA00010BD844214BF0020012010BD00207047DB
:102AB000012010BD303809288CBF0020012070474C
:102AC00038B505460C4603681878FFF7F3FF90B158
:102AD000002404EB840460002A68531C2B601378E4
:102AE000303BC4185078FFF7E5FF30B1044B9C42EF
:102AF000EFDD204638BD204638BD204638BD00BF3A
:102B0000CBCCCC0C086001234B608B60704700BFBE
:102B100010B4012B0AD105E00B78DBB2037022461A
:102B200001310130541E002AF6D10BE0531E184427
:102B300005E00B78DBB20370224601310138541EE8
:102B4000002AF6D15DF8044B704700BF10B582B083
:102B5000044601AA0121FEF7ABF90199204607F0CE
:102B6000BFF8012002B010BD38B505460846114631
:102B7000FFF7A6FF0446431E0F2B05D9102302467C
:102B800002492868FDF7A4FE204638BD58EC030032
:102B900038B50546084614460B685A1C0A601A7870
:102BA00000232360A2F120035A2B00F2A180DFE86A
:102BB00003F0A5979F9F9F9F9F9F9F9F9F9F9F9F72
:102BC0009F9F9F9F9F9F9F9F9F9F9F9F9F9F8B9335
:102BD0008F9F9F9F349F9F9F9F9F3B674B9F439FCC
:102BE0009F9F9F9F9F9F4F9F9F9F899F9F9F9F9F5B
:102BF0009F9F9F9F3077579F539F375F479F3F9F70
:102C00005B9F9F9F9F6F9F9F9F9F859F2E0005208B
:102C100038BD01232360002038BD0120206038BD6D
:102C200002232360002038BD02232360012038BD29
:102C300004232360002038BD04232360012038BD15
:102C400004232360002038BD04232360012038BD05
:102C500004232360012038BD04232360022038BDF3
:102C600008232360022038BD04232360022038BDDE
:102C7000042201462846FFF777FF2060002038BD78
:102C8000042201462846FFF76FFF2060012038BD6F
:102C9000042201462846FFF767FF2060042038BD64
:102CA0004FF0FF31FFF70CFF2060B0F1FF3F27D15D
:102CB00014492868FDF70CFE032038BD012323606A
:102CC000062038BD072038BD01236B60082038BDC1
:102CD00000236B60082038BD01236B60082038BDDD
:102CE000082201462846FFF73FFFA860082038BDAC
:102CF00005492868FDF7ECFD082038BD082038BDDF
:102D0000032038BD80EC0300A4EC03002DE9F04162
:102D100082B080460E4617461D461A463946FFF7D2
:102D200037FF04462B680193072811D13B681B78B5
:102D300043B101AA39464046FFF72AFF032801D0D4
:102D4000019B2BB9144A0121D8F80000FDF7DCFDE6
:102D5000019B012B01DD032C03D10023089A136092
:102D600015E0D8F80820934200DD0192019B5A1E1D
:102D7000134205D0094A0121D8F80000FDF7C4FD2F
:102D8000019B5A1E16409B1B1340089A1360204655
:102D900002B0BDE8F08100BFC0EC0300E4EC03002A
:102DA00070B588B0064600220121FEF781F8049034
:102DB00005A93046FFF7A6FE002424E003AB0093EC
:102DC00002AB04AA214605A8FFF7A0FF0546039B16
:102DD000029A13440293C3F1FF4303F5FF0303F583
:102DE000FF437F339C4204D90C4A01213046FDF752
:102DF0008BFD029B1C44043D012D04D8084A01218F
:102E00003046FDF781FD049B1B78002BD6D121466F
:102E1000304606F065FF012008B070BD10ED0300DC
:102E200028ED03002DE9F0471F46042BA8BF042717
:102E30007D1E002408E0240212B95E1E761B00E00D
:102E40002E468E5D3443013D002DF4DA032B09DC60
:102E5000089A5AB3DB00013B012202FA03F35C40FB
:102E6000E41A23E0042B21DD1E46154688468246DF
:102E7000089B23B1002C05DB4FF0000914E04FF054
:102E8000000911E04FF0FF090EE015B9731EDB1BBE
:102E900000E03B4618F80330994504D03246054916
:102EA0005046FDF715FD0137B742EEDB2046BDE881
:102EB000F08700BF40ED03002DE9F04391B00646D6
:102EC00000220121FDF7F4FF0C900BAA02213046ED
:102ED000FDF7EEFF8046012203213046FEF792F80F
:102EE0000B9D2946FFF71CFD441EA54204D2554AFE
:102EF00003213046FDF708FD0DA93046FFF702FE1D
:102F0000002791E003AB009302AB0CAA21460DA869
:102F1000FFF7FCFE0546039B029A9818E14388429E
:102F200004D8234413440B9A934204D9464A0221FD
:102F30003046FDF7E9FC03990C44444A022130462F
:102F4000FDF7BCFD07F10109082D06D8DFE805F003
:102F5000070718353D5C6A6A6A004F4662E0B5FAB9
:102F600085F56D090095029B0E9A08EB0401304629
:102F7000FFF758FF0146304606F0B2FE4F4651E0DB
:102F80000E9B029A08EB040104A8FFF7C1FD029B07
:102F9000042B02D19DED040A0AE0082B06D1DDE9DD
:102FA000040117F033FE00EE100A01E09DED040A63
:102FB000304606F08BFE4F4634E0029A08EB0401DF
:102FC000304606F095FE4F462CE000230093029B0E
:102FD0000E9A08EB04013046FFF724FF0746251838
:102FE000029B2B440B9A934204D9174A0221304684
:102FF000FDF78AFC029921443A464144304606F0E6
:1030000077FE4F462C460DE008EB0407384618F0D3
:103010004BFE054602463946304606F069FE2C4412
:1030200001344F4602990C440C9B1B78002B7FF413
:1030300069AF611C304606F053FE781C11B0BDE844
:10304000F08300BF70ED030090ED0300A8ED0300D6
:1030500008B54369013B07E0DA1C00EBC202526885
:10306000B2F1FF3F07D0013B002BF5DA03490069BD
:10307000FDF72EFC08BD184608BD00BFBCED0300DF
:1030800070B505460C461646C368013B934203D80B
:103090000E490069FDF71CFC23783078834212D179
:1030A0007178012209E02378994203D1013A04D1D1
:1030B000601C70BD984200D101320134AB689C4263
:1030C000F1D3002070BD002070BD00BFD4ED03001F
:1030D00008B5B1F1310309D44269934206DADA1C2A
:1030E00000EBC2025268B2F1FF3F06D1A1F13002FB
:1030F00003490069FDF7ECFB08BD184608BD00BF99
:1031000004EE030070B505460E464C1C0B78252BCB
:1031100002D05B2B09D024E0C3689C4203D1124942
:103120000069FDF7D5FBB01C70BD4B785E2B00D15C
:103130008C1CEB689C4203D10C492869FDF7C8FB45
:10314000631C2278252A04D1EA68934203D2023410
:1031500002E01C4600E01C4623785D2BE9D1601C90
:1031600070BD204670BD00BF20EE030044EE03009A
:1031700070B505460C46406988420CDC114624B9FE
:103180009A1A286906F0B4FD70BD621C12492869BC
:10319000FDF79EFB70BDCB1C05EBC3035E68B6F16B
:1031A000FF3F03D10D492869FDF792FB16F1020F8D
:1031B00009D1033455F834306968591A0131286946
:1031C00006F08EFD70BD0334324655F83410286980
:1031D00006F08EFD70BD00BF04EE030064EE030038
:1031E0002DE9F04106460F46904645690DB901B1FB
:1031F0000125094A29463069FDF760FC002406E0F4
:1032000043463A4621463046FFF7B2FF0134AC420E
:10321000F6DB2846BDE8F08178EE03002DE9F041A9
:1032200082B0074601AA0121FDF742FE8046012235
:1032300002213846FDF7E6FE0199FFF771FB0646CD
:10324000024603213846FDF7DDFE019C2146FFF7CB
:1032500067FB002E00DC01262346A04200DC03466B
:103260009E421CDC9D1B01357219934204DB0E4902
:103270003846FDF72DFB13E00B4A29463846FDF78B
:103280001DFC002407E03319434413F8011C3846A1
:1032900006F026FD0134AC42F5DB284600E00020B4
:1032A00002B0BDE8F08100BF8CEE0300F8B5074620
:1032B0000C4615461E461946FDF728FC0DB9731E2F
:1032C00000E00023C454012307E0240A15B9721E4C
:1032D000D21A00E01A4684540133B342F5DB069B50
:1032E00073B1042E09DC0BE015B9721ED21A00E08E
:1032F0001A46FF218154013300E00423B342F3DB7B
:10330000BB681E44BE60F8BDF0B583B0054601AA97
:103310000121FDF7CDFD074602212846FDF760FE9D
:103320000199FFF7FDFA04464FF0FF3203212846CA
:10333000FDF768FE019E3146FFF7F2FA002C00DC33
:1033400001243246B04200DC0246944207DC611E92
:10335000121B01323944284606F0CAFC04E0002260
:103360000349284606F0C4FC012003B0F0BD00BFAD
:10337000FC08040008B51846FDF700FC002008BD55
:103380002DE9F043ADF65C0D814600220121FDF7E9
:103390008FFD0E900FA94846FFF7B4FB484606F094
:1033A0008DFC12A94846FDF757FC0024012609E1CF
:1033B00006AF009705AB0EAA21460FA8FFF7A6FCA3
:1033C00005463A68059B13441C440DE0149A139B70
:1033D0009A4203D3012112A8FDF798FB129A149B7D
:1033E000591C14910021D154069B5A1E0692002BA1
:1033F000ECDC06F10108082D0AD8DFE815F00B0017
:103400002C0049006F008500AD00D500E300E3000B
:103410004646D7E041464846FDF7E2FD0546059B96
:10342000032B0EDCDB00013B012202FA03F35A42BC
:10343000904201DB984204DB694A41464846FDF769
:1034400063FA059B109AE90F0091294612A8FFF72D
:103450002DFF4646B6E041464846FDF7C1FD05460C
:10346000059B032B0ADCDB00012202FA03F38342F3
:1034700004D85C4A41464846FDF746FA059B109A37
:1034800000210091294612A8FFF710FF464699E057
:10349000059912A8FDF73AFB064641464846FDF756
:1034A0005DFD059D042D02D18DED080A0AE0082D71
:1034B00006D110EE100A17F093F8CDE9080101E0EB
:1034C0008DED080A109B2A4608A93046FFF720FB1D
:1034D000149A059B13441493464673E007AA414689
:1034E0004846FDF7E5FC0546079A059B9A4204D03D
:1034F0003D4A41464846FDF707FA059A294612A873
:10350000FDF73CFB46465DE007AA41464846FDF70D
:10351000CFFC0546059B032B0BDCDB00012202FAE6
:1035200003F3079A934204D8304A41464846FDF7D0
:10353000EBF9059B109A07990391002100910399DB
:1035400012A8FFF7B3FE079A294612A8FDF716FB4B
:10355000079B1C44464635E007AA41464846FDF70E
:10356000A7FC054618F0A0FB079B984204D0204A10
:1035700041464846FDF7C8F9079A294612A8FDF7C3
:10358000FDFA149A139B9A4203D3012112A8FDF766
:10359000BDFA129A149B591C14910021D154079B17
:1035A0001C44013446460DE0149A139B9A4203D3FF
:1035B000012112A8FDF7AAFA129A149B591C149122
:1035C0000021D1540E9B1B78002B7FF4F1AE12A882
:1035D000FDF7F0FA01200DF65C0DBDE8F08300BFA9
:1035E000A4EE0300B8EE0300CCEE0300DCEE030013
:1035F00008EF030030B5ADF61C0D05460DF61402BC
:103600000121FDF755FC0446DDF8142801A92846E0
:10361000FDF72CFB00230CE0C518E25C0A490968A1
:103620001144497801F00301022900D1203A2A709F
:103630000133DDF814188B42EED301A8FDF7D4FA5C
:1036400001200DF61C0D30BDA419002030B5ADF6DB
:103650001C0D05460DF614020121FDF729FC044658
:10366000DDF8142801A92846FDF700FB002305E03A
:10367000C91A214411F8012CC2540133DDF8141881
:103680008B42F5D301A8FDF7AFFA01200DF61C0D12
:1036900030BD00BF30B5ADF61C0D05460DF6140269
:1036A0000121FDF705FC0446DDF8142801A9284690
:1036B000FDF7DCFA00230CE0C518E25C0A49096852
:1036C0001144497801F00301012900D120322A7008
:1036D0000133DDF814188B42EED301A8FDF784FA0C
:1036E00001200DF61C0D30BDA41900202DE9F0437A
:1036F000ADF61C0D05460DF614020121FDF7D8FBB1
:10370000804602212846FDF76BFC04460DF5016357
:10371000284A03212846FDF7D9FB002C06DC0022AD
:103720002449284606F0E4FA01203FE08146DDF80E
:103730001438DDF81028981805D26FF00041B1FB5D
:10374000F4F1884204D91C492846FDF7C1F82DE060
:10375000671E07FB02F704FB03773A4669462846D3
:10376000FDF784FA054613E0DDF8142841462846A3
:1037700017F075FEDDF814381D44DDF8102832B15D
:103780004946284617F06BFEDDF810381D443446D4
:10379000661E012CE8DCDDF814284146284617F0A7
:1037A0005EFE39466846FDF71FFA01200DF61C0D36
:1037B000BDE8F083FC08040020EF0300F8B50646DE
:1037C0000F46002435190849284618F09DFA40B9DB
:1037D000284618F069FA01300444BC42F2D90120AD
:1037E000F8BD0020F8BD00BF3CEF030070B50546F2
:1037F0000E461146FFF76CFCC31C05EBC3035C6867
:10380000AB689B1B9C4209D803302246314655F8D1
:10381000300017F015FE18B9301970BD002070BDCA
:10382000002070BD2DE9F04104460E4615460368A0
:103830005A1E02601BB964490069FDF749F8E26845
:10384000954200F0BB802B78243B052B6DD8DFE838
:1038500003F01F286C6C03186B78292B08D16FF0CC
:103860000103AA1C3146204600F0B2F80646A5E046
:103870004FF0FF336A1C3146204600F0A9F8064697
:103880009CE06A1C3146204600F0C8F8064695E0E8
:103890006B1C9A4249D1A3689E4200F08F8000269B
:1038A0008CE06A78622A08D004D8A2F13003092B90
:1038B00032D93AE0662A0AD037E0AA1C31462046BF
:1038C000FFF7DEFB0646002878D00435B7E7AF1CCB
:1038D000AB785B2B03D03D492069FCF7F9FF3946F3
:1038E0002046FFF70FFC054663689E4202D016F89B
:1038F000010C00E0002005F1FF3842463946FFF791
:1039000087F8002855D1424639463078FFF780F8CD
:10391000002894D1002651E031462046FFF766FF8B
:10392000064600284AD0023589E729462046FFF797
:10393000E9FB074603462A4631462046FFF79CF836
:1039400040B93B782A2B03D03F2B01D02D2B32D10D
:103950007D1C74E73B782A3B152B27D8DFE803F062
:103960001615261E26262626262626262626262620
:1039700026262626260B7D1C2A46711C2046FFF78C
:1039800051FF00283FF45BAF17E001363B462A4663
:103990003146204600F060F806460FE03B462A46D6
:1039A0003146204600F078F8064607E001363D46ED
:1039B00045E7002602E0002600E0064623680133C2
:1039C00023603046BDE8F08148EF03005CEF030060
:1039D0002DE9F04104460E461746984645691F2DCD
:1039E00003DD0D490069FCF773FFEB1C44F83360FD
:1039F00004EBC303C3F80480013565613A463146E0
:103A00002046FFF70FFF034610B96269013A626171
:103A10001846BDE8F08100BF78EE0300F8B5044613
:103A20000D461746FFF714FB0646C31C54F8332017
:103A3000AA1A04EBC3035A603A4629462046FFF708
:103A4000F1FE034628B9033604EBC6044FF0FF32FB
:103A500062601846F8BD00BF2DE9F04105460E46EC
:103A600090461F46002400E001343B46424631198F
:103A70002846FFF701F80028F6D106E07A1C311934
:103A80002846FFF7CFFE28B9013C002CF6DA0020CB
:103A9000BDE8F081BDE8F081F8B506460C46174652
:103AA0001D466A1C21463046FFF7BCFE40B92B4636
:103AB0003A4621463046FEF7DFFF10B10134F0E709
:103AC000F8BD0020F8BD00BF2DE9F8430446EBB176
:103AD00017468B421CD803F1FF39C9EB01050AE0F8
:103AE00008F101064A46791C304617F0A9FC90B14E
:103AF000341B2D1B34468DB12A463978204617F0E9
:103B00004FFC80460028EBD1BDE8F883BDE8F88380
:103B10000020BDE8F8834046BDE8F8830020BDE8FA
:103B2000F88300BF2DE9F047C8B00746894647AA89
:103B30000121FDF7BDF9804646AA02213846FDF76E
:103B4000B7F90546012203213846FDF75BFA479E87
:103B50003146FEF7E5FE041E07DD0136B44205DD01
:103B6000384606F0ABF801206AE00124B9F1000FF5
:103B700022D00421384605F0FFFF20B94699284697
:103B8000FFF71CFEC0B1601E4799091B469B2A46E1
:103B900001314044FFF798FF00284DD0C8EB0008E2
:103BA00008F10101384606F09BF846994144384631
:103BB00006F096F8022043E0013C44442E785E2E45
:103BC00003D10135469B013B46930497C8230093DC
:103BD000CDF80480479B43440293469B2B440393B8
:103BE00000E01446002305932A4621466846FFF765
:103BF00019FE8246D0B1B9F1000F11D0C8EB040113
:103C00000131384606F06CF8C8EB0A01384606F078
:103C100067F8002211466846FFF7E2FA02300FE02B
:103C2000024621466846FFF7DBFA09E0621C029B68
:103C30009C4201D25E2ED4D1384606F03FF80120D6
:103C400048B0BDE8F08700BF08B50021FFF76AFF64
:103C500008BD00BF08B50121FFF764FF08BD00BF24
:103C60002DE9F04F83B080460D4691469A4607698C
:103C700001AA0321384605F08FFF064600245BE0C9
:103C800006EB040B335D252B0FD0AA686B689A42B4
:103C900003D301212846FCF739FF2A68AB68591C79
:103CA000A9609BF80010D15445E0013406EB040BE9
:103CB000315D244B1B680B445B7813F0040F16D165
:103CC000252904D0252220493846FCF701FEAA68A0
:103CD0006B689A4203D301212846FCF717FF2A6834
:103CE000AB68591CA9609BF80010D15423E030291F
:103CF00006D1C9EB0A0249462846FCF73FFF1AE005
:103D000053464A4631394046FFF732FA00224FF017
:103D1000FF313846FDF7C0F94FF0FF326FF0010177
:103D2000384605F009FE6FF00101384605F0E8FD60
:103D30002846FCF761FF0134019B9C42A0D303B0ED
:103D4000BDE8F08FA419002080EF03002DE9F041B9
:103D500082B00546884616461F46089B0469052B17
:103D600012D0062B19D10321204605F031FE3A4628
:103D700031462846FFF734FA00230093012201461A
:103D8000204606F07FFA0CE03B460021FFF7F0F9F1
:103D90000321204606F082F803E03B46FFF760FF70
:103DA00027E04FF0FF31204605F0E6FE50B96FF0F6
:103DB0000101204605F0A4FDBA1B3146204605F05E
:103DC00097FF13E04FF0FF31204605F03FFE68B942
:103DD0004FF0FF31204605F007FE0146204605F072
:103DE00013FE024604492046FCF772FD4046FCF7EC
:103DF00003FF02B0BDE8F081ACEF03002DE9F04F06
:103E0000ADF63C1D83460DF634120121FDF750F846
:103E100004460DF5136202215846FDF749F807469E
:103E20000321584605F0E0FD8246DDF834290132D1
:103E300004215846FDF7E6F8814697F80080AAF17C
:103E40000303012B0AD9BAF1060F07D0BAF1050F07
:103E500004D0354A03215846FCF756FD02A95846BE
:103E6000FCF7FAFEB8F15E0F05D10137DDF8303905
:103E7000013BCDF83039CDF828B8C823CDF8183833
:103E8000CDF81C48DDF834392344CDF82038DDF86E
:103E900030393B44CDF8243800262FE00023CDF8FC
:103EA0002C383A4621460DF61800FFF7BBFC0546B4
:103EB00048B10136CDF800A00346224602A90DF60E
:103EC0001800FFF743FF0DB1AC4213D3DDF82038E3
:103ED0009C4215D2049A039B9A4203D3012102A863
:103EE000FCF714FE029A049B591C04912178D154CA
:103EF000013400E02C46B8F15E0F01D04E45CDDB19
:103F0000DDF82028121B214602A8FCF737FE02A884
:103F1000FCF750FE3146584605F0E2FE02200DF651
:103F20003C1DBDE8F08F00BFD0EF030010B5044684
:103F300000220121FCF7BCFF002202212046FCF7F1
:103F4000B7FF0221204605F0DBFC0021204605F0EA
:103F5000C7FE03220249204605F028FF012010BDBC
:103F6000653F02002DE9F041C8B0804601AA224910
:103F700005F012FE07466A462049404605F00CFE51
:103F80000546CDF81880C82302930397019B3B4454
:103F90000493009B0344059300221949404605F011
:103FA000D3FD3C1821E0002307932A46214602A8AE
:103FB000FFF738FC0646B8B1C11B844200D101317D
:103FC000404605F08DFE0E4A4FF0FF31404605F0A9
:103FD000D7FC6FF00101404605F092FC32462146C5
:103FE00002A8FFF7FDF804E00134049B9C42DAD9F3
:103FF000002048B0BDE8F081D7B9F0FFD6B9F0FF96
:10400000D5B9F0FF2DE9F041ADF5016D064605F09B
:104010006FFC0746024669463046FCF727FE80469D
:10402000012410E021463046FCF7DAFF0546C3B212
:10403000984204D0094A21463046FCF765FC631ECD
:1040400008F803500134BC42ECDD39466846FCF701
:10405000CBFD01200DF5016DBDE8F081F0EF03000F
:10406000F8B507460E4615460C4600E001342178A7
:1040700021B1244817F005FC0028F7D1A31B052B1C
:1040800003D921493846FCF723FC204B1B682278D2
:104090001A44527812F0040F00D0013422781A44E6
:1040A000527812F0040F00D0013422782E2A10D159
:1040B000611C62781A44527812F0040F01D0023465
:1040C00000E00C4622781A44527812F0040F00D017
:1040D0000134227813445B7813F0040F03D00C49A9
:1040E0003846FCF7F5FB6F1C25232B70A51B01350B
:1040F0002A463146384617F0B2F900237B55204650
:10410000F8BD00BF04F003000CF00300A419002068
:104110002CF003002DE9F04105460F4617F0C4FDD1
:104120000646384617F0C0FD0446701E15F800809C
:104130003946284417F0BFFB3019431E05F80380A9
:1041400000232B54BDE8F08130B585B00C461146F4
:1041500003AAFCF7ADFE0546A26863689A4203D342
:1041600001212046FCF7D2FC2268A368591CA160FB
:104170002221D15450E02A78222A03D05C2A01D08F
:104180000A2A1CD1A26863689A4203D301212046FF
:10419000FCF7BCFC2268A368591CA1605C21D154C7
:1041A000A26863689A4203D301212046FCF7AEFC63
:1041B0002268A368591CA1602978D1542BE032B140
:1041C000204B1B6813445B7813F0200F15D06B78DD
:1041D0001C4909680B445B7813F0040F04D11A4999
:1041E000684617F0E7FA03E01849684617F0E2FA64
:1041F00069462046FCF7D2FC0DE0A26863689A424B
:1042000003D301212046FCF781FC2268A368591CD6
:10421000A1602978D1540135039B5A1E0392002BCB
:10422000A9D1A26863689A4203D301212046FCF712
:104230006DFC2268A368591CA1602221D15405B0ED
:1042400030BD00BFA41900205CF0030060F0030043
:104250002DE9F047ADF5036D074605F049FB8046B3
:104260000DF62C0201213846FCF722FE0446DDF84B
:104270002C58054407A93846FCF7EEFC0126BDE0A2
:104280002378252B0FD0099A089B9A4203D301214A
:1042900007A8FCF73BFC079A099B591C0991217858
:1042A000D1540134AAE004F1010A6378252B0FD11F
:1042B000099A089B9A4203D3012107A8FCF726FC20
:1042C000079A099B591C09916178D154023495E0F1
:1042D0004FF4007107A8FCF719FC81460136B04580
:1042E00004DA4C4A31463846FCF70EFB02AA514626
:1042F0003846FFF7B5FE441C0278A2F14103372B84
:1043000074D8DFE803F037737373377337737373DD
:1043100073737373737373737373737373277373B9
:1043200073737373737337731C273737377327733C
:104330007373737327734B735373277373273146E8
:104340003846FCF74DFE024602A9484617F032FAFD
:10435000814650E031463846FCF742FE82462E49FF
:1043600002A8FFF7D7FE524602A9484617F022FAE4
:10437000814640E0284902A8FFF7CCFE3146384686
:10438000FCF7ECFD10EE100A16F02AF902460B4677
:1043900002A9484617F00EFA81462CE0324607A9DA
:1043A0003846FFF7D1FE4FF0000924E001AA31465C
:1043B0003846FCF771FE82462E2102A817F061FAFA
:1043C00040B9019B632B05D907A8FCF715FC4FF0FA
:1043D000000910E0524602A9484617F0EBF9814661
:1043E0006FF00101384605F08BFA04E00B493846BE
:1043F000FCF76EFA09E0099848440990AC42FFF4D2
:104400003FAF07A8FCF7D6FB01200DF5036DBDE813
:10441000F08700BFF4E80300FC08040068F0030024
:1044200030B5ADF6140D0446022105F0A5FB054696
:10443000062201212046FCF72DFD0121204605F032
:104440005FFA69462046FCF707FC2B466A46084996
:10445000204605F0C7FF20B106492046FCF738FA90
:1044600003E06846FCF7A6FB01200DF6140D30BDF5
:10447000753302008CF0030010B5044601220021C0
:1044800005F09AFD00221249204605F031FC6FF03C
:104490000101204605F09CFA6FF00101204605F06D
:1044A000A7FE6FF00101204605F02AFA6FF0010126
:1044B000204605F08DFA074A6FF00101204605F00D
:1044C000DFFD6FF00101204605F01AFA10BD00BFB4
:1044D000FC0804002CE8030010B5044644219FEDBD
:1044E000090AFCF723FF11220021204605F064FD94
:1044F000002205492046FCF743FE2046FFF7BCFF9B
:10450000012010BD0080FB43C8EB030003681A784C
:104510002D2A03D101330360012070472B2A03D1D8
:1045200001330360002070470020704710B5144627
:104530000D2930D8DFE801F007090B0E2F2F1318D3
:104540001B1E21262B2DE01810BDE01A10BD03FB09
:1045500004F010BD1A46214601F08EF810BD1A462F
:10456000214601F073F810BD04EA030010BD44EACF
:10457000030010BD84EA030010BD1946204601F077
:1045800091F810BD5942204601F08CF810BD6042F0
:1045900010BDE04310BD002010BD00BF08B52DEDDB
:1045A000028BF0EE407AB0EE608A0C292BD8DFE85F
:1045B00001F0070A0D1E1310162A2A2A2A2A1B00A8
:1045C00030EE200A21E030EE600A1EE020EE200AE4
:1045D0001BE087EEA00A18E013F098FB15E087EEC9
:1045E000A00A13F00BF810E0B1EE400A0DE013F052
:1045F00035FA68EE007AF5EEC07AF1EE10FA04D5DD
:1046000038EE000A01E09FED020ABDEC028B08BD06
:104610000000000030B583B004460D46154917F080
:1046200073FB10BB1449204617F06EFB30B101A993
:10463000204618F0C9F985ED000A05E001A92046D9
:1046400018F0C2F985ED000A019B9C4202D10EE0F0
:1046500001300190019803785A1C08498A5C12F0D5
:10466000080FF5D123B1002002E0002000E0002077
:1046700003B030BD24F1030028F10300E802040078
:1046800038B5846804F10805856004F0D9FA206023
:10469000037943F04003636038BD00BF072804D8A6
:1046A000704701304008013300E000230F28F8D89C
:1046B0000133083840EAC300704700BFC0F3C402AA
:1046C00032B100F0070000F10803501E03FA00F0B9
:1046D000704700BF0138002201E00832000AFF28BD
:1046E000FBD80249085C1044704700BF94F10300F6
:1046F0002DE9F04184B080460C4616461F460A9DBF
:104700000B1F092B4DD8DFE803F027274C050505C3
:1047100005054C057368132B02D13368029305E03D
:1047200002A9304600F03CFC00286AD07B68132BBD
:1047300002D13B68039305E003A9384600F030FC42
:1047400000285ED0039B029A21464046FFF7EEFE0A
:10475000286013236B605DE07368032B02D133681C
:10476000029305E002A9304600F0A8FB002848D0DB
:104770007B68032B02D13B68039305E003A938460D
:1047800000F09CFB00283CD0DDED030A9DED020A01
:1047900021464046FFF702FF85ED000A03236B60C8
:1047A00038E07368132B0AD17A68132A07D13B6863
:1047B0003268FFF7BBFE286013236B602AE0032BEF
:1047C00002D13368029304E002A9304600F076FB80
:1047D000B8B17B68032B02D13B68039304E003A9C3
:1047E000384600F06BFB60B1DDED030A9DED020A77
:1047F00021464046FFF7D2FE85ED000A03236B6099
:1048000008E00634E4B200942B463A46314640466E
:10481000FDF7F4FA04B0BDE8F08100BF431C054A7F
:10482000D35C13F0020F01D03038704740F0200005
:1048300057387047E8020400F0B583B001900C4689
:1048400001E001330193019B1A78013229498A5C06
:1048500012F0080FF5D101A8FFF758FE0546019B9D
:104860001A78302A22D15A78782A01D0582A20D1B1
:10487000023301930127002306E01F01FFF7CEFF5B
:104880003B18013601960027019E3078421C1949D9
:104890008A5C12F0100FF0D118E003EB830359008B
:1048A0007318303B01320192002704E001270023F6
:1048B00001E001270023019A1678711C0D48415C24
:1048C00011F0020FE9D101E001320192019A117851
:1048D000481C084E305C10F0080FF5D12FB931B9E3
:1048E00005B15B422360019802E0002000E0002057
:1048F00003B0F0BDE802040030B583B005460C46B5
:1049000001A9FFF799FF28B10346019A22601322FB
:10491000626009E069462846FFF77CFE034630B135
:10492000009A226003226260581B013000E00020E0
:1049300003B030BD30B405467F2902D8C1710120D3
:1049400014E03F240123581CC3F1080301F03F0287
:1049500042F08002EA54890964080346A142F2D871
:10496000C0F10803E44341EA4401E95430BC704714
:1049700070B58EB006460C464B68132B06D10A68FC
:10498000184901A816F016FF05461EE0086815F044
:1049900027FE02460B46144901A816F00BFF0546F8
:1049A000124901A817F0C8F90EAB184410F8343CAE
:1049B0005BB96B1C0EAA2A442E2102F8341C0EAAE5
:1049C00013440235302203F8342C2A4601A930461C
:1049D00004F036F92060037943F0400363600EB0C1
:1049E00070BD00BF1CEE03002CF1030034F1030086
:1049F0000EB400B582B003AA52F8041B019200F075
:104A000005F802B05DF804EB03B070472DE9F04102
:104A100086B004460D4617464FF00008252128466B
:104A200016F02FFF0646002800F0BB80A369A2689D
:104A30009B1A172B03DC0221204604F0B9FA721BE3
:104A400029462046FFF71CFE7278A2F125034E2B63
:104A500000F29F80DFE803F0979D9D9D9D9D9D9DA9
:104A60009D9D9D9D9D9D9D9D9D9D9D9D9D9D9D9D76
:104A70009D9D9D9D9D9D9D9D9D9D9D9D599D9D9DAA
:104A80009D9D9D9D9D9D9D9D8A9D9D9D9D9D9D9D69
:104A90009D9D9D9D9D9D354A9D689D9D9D9D9D9D36
:104AA0009D9D9D7E9D9D28003D68043705B94D4D17
:104AB000284617F0F9F8024629462046FFF7E0FDA0
:104AC0006BE03A7804378DF80020531C4649CB5CE4
:104AD00013F0040F05D0012269462046FFF7D0FDF0
:104AE0005BE042492046FFF783FF56E0A36803F1ED
:104AF0000802A2603A6804371A6013225A60A1685B
:104B000008392046FFF734FF47E0A36803F10802A5
:104B1000A2603A6804371A6013225A60A168083903
:104B20002046FFF725FF38E0A56805F10803A360DC
:104B3000073727F0070303F10807D3E9000116F050
:104B400065F8286003236B60A16808392046FFF7E9
:104B50000FFF22E03A6804372549684616F02AFE1E
:104B6000024669462046FFF78BFD16E03968043798
:104B70006846FFF7DFFE0246C0F10801694420469F
:104B8000FFF77EFD09E001221A492046FFF778FD74
:104B900003E019492046FCF78FFF08F10208B51C15
:104BA0003CE7A369A2689B1A0F2B03DC0121204676
:104BB00004F0FEF9284617F077F802462946204609
:104BC000FFF75EFDB8F1000F04DD08F1010120469A
:104BD00000F040FCA36853F8080C183006B0BDE89C
:104BE000F08100BF40F10300E802040048F1030037
:104BF0008CE5030050F1030054F103002DE9F0416E
:104C000007460E461446084617F04EF80546337818
:104C10003D2B12D1A04206D80246711C384616F030
:104C20001EFCBDE8F081651E2A46711C384616F050
:104C300016FC00237B55BDE8F081402B16D1A04225
:104C400006D80246711C384616F009FCBDE8F08112
:104C500003221F49384616F002FCE21EA91A013150
:104C60003144F81C16F0FBFBBDE8F0810A21304608
:104C700016F007FE804609221649384616F0EFFB6B
:104C800009370F3CA54209D2B8F1000F06D12A46D8
:104C90003146384616F0E3FB781913E0B8F1000FFF
:104CA00001D0C6EB0805A54200D82C462246314665
:104CB000384616F0D4FB3C4403220549204616F042
:104CC000CEFBE01C0322044916F0C9FBBDE8F081CD
:104CD00080F1030084F1030090F103004368032B8B
:104CE00003D103680B6001207047132B0AD182B0F7
:104CF000D0ED007AF8EEE77ACDED017A019B0B60FA
:104D0000012003E000230B600020704702B07047D1
:104D1000F0B4466CD6B1C768006C002312E000EB1B
:104D2000C30425791DB1647902EBC40403E06479FE
:104D300051F8244024681D1D56F825502D68AC42BA
:104D400006D10133BB42EADB304602E0304600E0E8
:104D50000020F0BC704700BF70B52DED028B82B013
:104D600004460D4616466368032B25D194ED008A50
:104D7000B0EE480A12F042FCB4EE408AF1EE10FAAE
:104D800006D086B3012E03DDF7EE007A30EE270A57
:104D9000DFED1A7AB4EEE70AF1EE10FA25DBDFED6B
:104DA000187AB4EEE70AF1EE10FA20D5BDEEC00A8B
